:100D29004C6F774675656C005445524D494E414CA0
:0D0D39000073003A004600250054006300DE
:080D6300020C00000210006404
:100C4F007F017E00120C69D2A5D2A4D2A37F017EB0
:0A0C5F0000120C69C2A37F017E00A1
:100C6900EF4E60147D737C00ED1D70011CED4C701E
:080C7900F7EF1F70EB1E80E88D
:010C81002250
:100CDB00120CB07F057E00120C697F28120BAD7FC2
:100CEB0001120BAD7F06120BAD7F0E120BAD7F8089
:080CFB00120BAD7F0C020BADE2
:100CB000C2A2C2A3C2A6C2A7120C4FD2A5D2A4D26E
:100CC000A3120C65C2A3120C4FD2A5C2A4D2A312C8
:0B0CD0000C65C2A37F017E00020C69CE
:100C16007FFFAE071FEE70FA7FFFAE071FEE70FA7A
:100C26007FFFAE071FEE70FA7FFFAE071FEE70FA6A
:100C36007FFFAE071FEE70FA7FFFAE071FEE70FA5A
:080C46007FFFAE071FEE70FAFC
:010C4E002283
:100BAD00AB07EB30E704D2A78002C2A7EB30E60417
:100BBD00D2A68002C2A6EB30E504D2A58002C2A562
:100BCD00EB30E404D2A48002C2A4C2A2D2A37F025D
:100BDD00120C5EEB30E304D2A78002C2A7EB30E229
:100BED0004D2A68002C2A6EB30E104D2A58002C2D7
:100BFD00A5EB30E004D2A48002C2A4C2A2D2A37F8E
:090C0D00027E00120C69C2A32250
:100ABA007C00AF82AE83120B588E1D8F1E7C007D88
:080ACA000A120B58ED2430FF65
:100AD200AB07EB30E704D2A78002C2A7EB30E604F3
:100AE200D2A68002C2A6EB30E504D2A58002C2A53E
:100AF200EB30E404D2A48002C2A4D2A2D2A37F0229
:100B02007E00120C69C2A3EB30E304D2A78002C2BA
:100B1200A7EB30E204D2A68002C2A6EB30E104D2F7
:100B2200A58002C2A5EB30E004D2A48002C2A4D206
:0D0B3200A2D2A37F027E00120C69C2A32292
:080C82007BFF7A0D793C7F0233
:100C8A008B178A188919120D03AB17AA18A91912FA
:100C9A000B3FFF6010120AD274012519F519E435C9
:060CAA0018F51880E42299
:100D0300EF24FE600F14601114601324037016EDBA
:100D1300247F800DED24BF8008ED24938003ED2410
:060D2300D3FF120BAD220C
:060997008F178B828A839A
:10099D00E4FAE5176003ED70077F80120BAD80055B
:1009AD00AF17120D03E51C6405451B6003BA011456
:1009BD007C277D10AF82AE83120B58EF2430FF12CF
:1009CD000AD27A01E51C6404451B6003BA01097C57
:1009DD00037DE8120ABC7A01E51C6403451B600324
:1009ED00BA01077D64120ABA7A01E51C6402451B3F
:1009FD006003BA01077D0A120ABA7A01E51C640187
:100A0D00451B6003BA0107AE83AF82120AC7D3E557
:100A1D001C9405E51B6480948040057F45120AD225
:010A2D0022A6
:10080000C2B0D2B7120CDBD2AFD2A8D288E4750B3B
:1008100010F50AF509F508120D74E50D450C700385
:10082000020993120D6C120D46AF8DEFAD8BF50ED4
:10083000EDF50FE50B2405F50BE4350AF50AE43573
:1008400009F509E43508F508C3E511940AE51094A3
:10085000004003120D57308D1BC3E511940AE510BB
:100860009400401074F62511F51174FF3510F51041
:10087000C28DC28CE51475F00AA485F015F516AE8C
:1008800015FF7C007D0A120B588E128F13D3E511D1
:100890009414E5109400501AC3E511940AE51094DD
:1008A00000400F7BFF7A0D79297D0A7F01120C8AA7
:1008B0008023C3E511940AE510940050187BFF7A59
:1008C0000D79297D0A7F01120C8AE4F50BF50AF5F2
:1008D00009F508C28ED3E5139428E512940040046C
:1008E000D2B0800DD3E5139428E51294005002C2D3
:1008F000B07BFF7A0D79317D017F01120C8A7BFF7D
:100900007A0D793A7D017F02120C8A7D02120C82E7
:10091000AA0AAB0B751B00751C027D037F0212092E
:10092000977BFF7A0D793E7D067F02120C8A7D0748
:10093000120C82751B00751C02AB11AA107D087F7A
:10094000021209977BFF7A0D79407D0A7F02120C13
:100950008A7BFF7A0D79427D0C7F02120C8A7BFF25
:100960007A0D793C7D0D7F02120C8A751B00751C77
:1009700002AB13AA127D0E7F021209977BFF7A0D3C
:1009800079447D107F02120C8A7F647E00120C690C
:0709900002081AE4FEFF2239
:03000300020D7A71
:040D7A00630D0132D2
:080D6C00C2B6D2B620B7FD2289
:100D4600D2A1C2A18590147FFA7E00120C69D2A1AD
:010D5600227A
:0C0D5700758901758CFE758A17D28C22FC
:060D7400758905D28E22F4
:03000000020A2EC3
:0C0A2E00787FE4F6D8FD75811E020A7581
:100B3F00BB010689828A83E0225002E722BBFE02B4
:090B4F00E32289828A83E49322E7
:100B5800BC000BBE0029EF8DF084FFADF022E4CC81
:100B6800F875F008EF2FFFEE33FEEC33FCEE9DEC4A
:100B7800984005FCEE9DFE0FD5F0E9E4CEFD22ED90
:100B8800F8F5F0EE8420D21CFEADF075F008EF2FDA
:100B9800FFED33FD4007985006D5F0F222C398FDCB
:050BA8000FD5F0EA2268
:100A3A00020800E493A3F8E493A34003F68001F2CA
:100A4A0008DFF48029E493A3F85407240CC8C333BD
:100A5A00C4540F4420C8834004F456800146F6DF8C
:100A6A00E4800B0102040810204080900D63E47EAC
:100A7A00019360BCA3FF543F30E509541FFEE49381
:100A8A00A360010ECF54C025E060A840B8E493A348
:100A9A00FAE493A3F8E493A3C8C582C8CAC583CA73
:100AAA00F0A3C8C582C8CAC583CADFE9DEE780BE2B
:010D6B000087
:00000001FF
